{
  "contractName": "Voting",
  "abi": [
    {
      "anonymous": false,
      "inputs": [
        {
          "indexed": true,
          "internalType": "address",
          "name": "previousOwner",
          "type": "address"
        },
        {
          "indexed": true,
          "internalType": "address",
          "name": "newOwner",
          "type": "address"
        }
      ],
      "name": "OwnershipTransferred",
      "type": "event"
    },
    {
      "anonymous": false,
      "inputs": [
        {
          "indexed": false,
          "internalType": "uint256",
          "name": "proposalId",
          "type": "uint256"
        }
      ],
      "name": "ProposalRegistered",
      "type": "event"
    },
    {
      "anonymous": false,
      "inputs": [
        {
          "indexed": false,
          "internalType": "address",
          "name": "voter",
          "type": "address"
        },
        {
          "indexed": false,
          "internalType": "uint256",
          "name": "proposalId",
          "type": "uint256"
        }
      ],
      "name": "Voted",
      "type": "event"
    },
    {
      "anonymous": false,
      "inputs": [
        {
          "indexed": false,
          "internalType": "address",
          "name": "voterAddress",
          "type": "address"
        }
      ],
      "name": "VoterRegistered",
      "type": "event"
    },
    {
      "anonymous": false,
      "inputs": [
        {
          "indexed": false,
          "internalType": "enum Voting.WorkflowStatus",
          "name": "previousStatus",
          "type": "uint8"
        },
        {
          "indexed": false,
          "internalType": "enum Voting.WorkflowStatus",
          "name": "newStatus",
          "type": "uint8"
        }
      ],
      "name": "WorkflowStatusChange",
      "type": "event"
    },
    {
      "inputs": [],
      "name": "owner",
      "outputs": [
        {
          "internalType": "address",
          "name": "",
          "type": "address"
        }
      ],
      "stateMutability": "view",
      "type": "function",
      "constant": true
    },
    {
      "inputs": [],
      "name": "renounceOwnership",
      "outputs": [],
      "stateMutability": "nonpayable",
      "type": "function"
    },
    {
      "inputs": [
        {
          "internalType": "address",
          "name": "newOwner",
          "type": "address"
        }
      ],
      "name": "transferOwnership",
      "outputs": [],
      "stateMutability": "nonpayable",
      "type": "function"
    },
    {
      "inputs": [],
      "name": "winningProposalID",
      "outputs": [
        {
          "internalType": "uint256",
          "name": "",
          "type": "uint256"
        }
      ],
      "stateMutability": "view",
      "type": "function",
      "constant": true
    },
    {
      "inputs": [],
      "name": "workflowStatus",
      "outputs": [
        {
          "internalType": "enum Voting.WorkflowStatus",
          "name": "",
          "type": "uint8"
        }
      ],
      "stateMutability": "view",
      "type": "function",
      "constant": true
    },
    {
      "inputs": [
        {
          "internalType": "address",
          "name": "_addr",
          "type": "address"
        }
      ],
      "name": "getVoter",
      "outputs": [
        {
          "components": [
            {
              "internalType": "bool",
              "name": "isRegistered",
              "type": "bool"
            },
            {
              "internalType": "bool",
              "name": "hasVoted",
              "type": "bool"
            },
            {
              "internalType": "uint256",
              "name": "votedProposalId",
              "type": "uint256"
            }
          ],
          "internalType": "struct Voting.Voter",
          "name": "",
          "type": "tuple"
        }
      ],
      "stateMutability": "view",
      "type": "function",
      "constant": true
    },
    {
      "inputs": [
        {
          "internalType": "uint256",
          "name": "_id",
          "type": "uint256"
        }
      ],
      "name": "getOneProposal",
      "outputs": [
        {
          "components": [
            {
              "internalType": "string",
              "name": "description",
              "type": "string"
            },
            {
              "internalType": "uint256",
              "name": "voteCount",
              "type": "uint256"
            }
          ],
          "internalType": "struct Voting.Proposal",
          "name": "",
          "type": "tuple"
        }
      ],
      "stateMutability": "view",
      "type": "function",
      "constant": true
    },
    {
      "inputs": [
        {
          "internalType": "address",
          "name": "_addr",
          "type": "address"
        }
      ],
      "name": "addVoter",
      "outputs": [],
      "stateMutability": "nonpayable",
      "type": "function"
    },
    {
      "inputs": [
        {
          "internalType": "string",
          "name": "_desc",
          "type": "string"
        }
      ],
      "name": "addProposal",
      "outputs": [],
      "stateMutability": "nonpayable",
      "type": "function"
    },
    {
      "inputs": [
        {
          "internalType": "uint256",
          "name": "_id",
          "type": "uint256"
        }
      ],
      "name": "setVote",
      "outputs": [],
      "stateMutability": "nonpayable",
      "type": "function"
    },
    {
      "inputs": [],
      "name": "startProposalsRegistering",
      "outputs": [],
      "stateMutability": "nonpayable",
      "type": "function"
    },
    {
      "inputs": [],
      "name": "endProposalsRegistering",
      "outputs": [],
      "stateMutability": "nonpayable",
      "type": "function"
    },
    {
      "inputs": [],
      "name": "startVotingSession",
      "outputs": [],
      "stateMutability": "nonpayable",
      "type": "function"
    },
    {
      "inputs": [],
      "name": "endVotingSession",
      "outputs": [],
      "stateMutability": "nonpayable",
      "type": "function"
    }
  ],
  "bytecode": "0x608060405234801561000f575f80fd5b5061002c61002161003160201b60201c565b61003860201b60201c565b6100f9565b5f33905090565b5f805f9054906101000a900473ffffffffffffffffffffffffffffffffffffffff169050815f806101000a81548173ffffffffffffffffffffffffffffffffffffffff021916908373ffffffffffffffffffffffffffffffffffffffff1602179055508173ffffffffffffffffffffffffffffffffffffffff168173ffffffffffffffffffffffffffffffffffffffff167f8be0079c531659141344cd1fd0a4f28419497f9722a3daafe3b4186f6b6457e060405160405180910390a35050565b61210e80620001075f395ff3fe608060405234801561000f575f80fd5b50600436106100e8575f3560e01c8063bdc014311161008a578063d4f50f9811610064578063d4f50f98146101d6578063ee74c67814610206578063f2fde38b14610210578063f4ab9adf1461022c576100e8565b8063bdc01431146101a4578063c7038a4e146101c2578063c88af42f146101cc576100e8565b80638da5cb5b116100c65780638da5cb5b1461012e578063a1edffa21461014c578063a2788cce1461016a578063a7bfab161461019a576100e8565b8063230796ae146100ec5780632fdae3c514610108578063715018a614610124575b5f80fd5b6101066004803603810190610101919061127e565b610248565b005b610122600480360381019061011d919061130a565b61052f565b005b61012c6107ed565b005b610136610800565b6040516101439190611394565b60405180910390f35b610154610827565b6040516101619190611420565b60405180910390f35b610184600480360381019061017f919061127e565b610839565b604051610191919061150c565b60405180910390f35b6101a2610997565b005b6101ac610a7b565b6040516101b9919061153b565b60405180910390f35b6101ca610a81565b005b6101d4610bf2565b005b6101f060048036038101906101eb919061157e565b610cd5565b6040516101fd9190611603565b60405180910390f35b61020e610df4565b005b61022a6004803603810190610225919061157e565b610ed8565b005b6102466004803603810190610241919061157e565b610f5a565b005b60045f3373ffffffffffffffffffffffffffffffffffffffff1673ffffffffffffffffffffffffffffffffffffffff1681526020019081526020015f205f015f9054906101000a900460ff166102d3576040517f08c379a00000000000000000000000000000000000000000000000000000000081526004016102ca90611676565b60405180910390fd5b600360048111156102e7576102e66113ad565b5b60025f9054906101000a900460ff166004811115610308576103076113ad565b5b14610348576040517f08c379a000000000000000000000000000000000000000000000000000000000815260040161033f906116de565b60405180910390fd5b5f60045f3373ffffffffffffffffffffffffffffffffffffffff1673ffffffffffffffffffffffffffffffffffffffff1681526020019081526020015f2090506001151560045f3373ffffffffffffffffffffffffffffffffffffffff1673ffffffffffffffffffffffffffffffffffffffff1681526020019081526020015f205f0160019054906101000a900460ff1615150361041b576040517f08c379a000000000000000000000000000000000000000000000000000000000815260040161041290611746565b60405180910390fd5b5f6003905080805490508310610466576040517f08c379a000000000000000000000000000000000000000000000000000000000815260040161045d906117ae565b60405180910390fd5b8282600101819055506001825f0160016101000a81548160ff0219169083151502179055505f81600154815481106104a1576104a06117cc565b5b905f5260205f209060020201600101548285815481106104c4576104c36117cc565b5b905f5260205f2090600202016001015f815460010191905081905511905080156104f057836001819055505b7f4d99b957a2bc29a30ebd96a7be8e68fe50a3c701db28a91436490b7d53870ca433856040516105219291906117f9565b60405180910390a150505050565b60045f3373ffffffffffffffffffffffffffffffffffffffff1673ffffffffffffffffffffffffffffffffffffffff1681526020019081526020015f205f015f9054906101000a900460ff166105ba576040517f08c379a00000000000000000000000000000000000000000000000000000000081526004016105b190611676565b60405180910390fd5b600160048111156105ce576105cd6113ad565b5b60025f9054906101000a900460ff1660048111156105ef576105ee6113ad565b5b1461062f576040517f08c379a00000000000000000000000000000000000000000000000000000000081526004016106269061186a565b60405180910390fd5b60405160200161063e906118ab565b604051602081830303815290604052805190602001208282604051602001610667929190611903565b60405160208183030381529060405280519060200120036106bd576040517f08c379a00000000000000000000000000000000000000000000000000000000081526004016106b49061196f565b60405180910390fd5b61a4108282905010610704576040517f08c379a00000000000000000000000000000000000000000000000000000000081526004016106fb906119d7565b60405180910390fd5b61070c611208565b82828080601f0160208091040260200160405190810160405280939291908181526020018383808284375f81840152601f19601f82011690508083019250505050505050815f0181905250600381908060018154018082558091505060019003905f5260205f2090600202015f909190919091505f820151815f0190816107939190611c1c565b506020820151816001015550507f92e393e9b54e2f801d3ea4beb0c5e71a21cc34a5d34b77d0fb8a3aa1650dc18f60016003805490506107d39190611d18565b6040516107e0919061153b565b60405180910390a1505050565b6107f56110c2565b6107fe5f611140565b565b5f805f9054906101000a900473ffffffffffffffffffffffffffffffffffffffff16905090565b60025f9054906101000a900460ff1681565b610841611208565b60045f3373ffffffffffffffffffffffffffffffffffffffff1673ffffffffffffffffffffffffffffffffffffffff1681526020019081526020015f205f015f9054906101000a900460ff166108cc576040517f08c379a00000000000000000000000000000000000000000000000000000000081526004016108c390611676565b60405180910390fd5b600382815481106108e0576108df6117cc565b5b905f5260205f2090600202016040518060400160405290815f8201805461090690611a4f565b80601f016020809104026020016040519081016040528092919081815260200182805461093290611a4f565b801561097d5780601f106109545761010080835404028352916020019161097d565b820191905f5260205f20905b81548152906001019060200180831161096057829003601f168201915b505050505081526020016001820154815250509050919050565b61099f6110c2565b600360048111156109b3576109b26113ad565b5b60025f9054906101000a900460ff1660048111156109d4576109d36113ad565b5b14610a14576040517f08c379a0000000000000000000000000000000000000000000000000000000008152600401610a0b90611d95565b60405180910390fd5b600460025f6101000a81548160ff02191690836004811115610a3957610a386113ad565b5b02179055507f0a97a4ee45751e2abf3e4fc8946939630b11b371ea8ae39ccdc3056e98f5cc3f60036004604051610a71929190611db3565b60405180910390a1565b60015481565b610a896110c2565b5f6004811115610a9c57610a9b6113ad565b5b60025f9054906101000a900460ff166004811115610abd57610abc6113ad565b5b14610afd576040517f08c379a0000000000000000000000000000000000000000000000000000000008152600401610af490611e24565b60405180910390fd5b600160025f6101000a81548160ff02191690836004811115610b2257610b216113ad565b5b0217905550610b2f611208565b6040518060400160405280600781526020017f47454e4553495300000000000000000000000000000000000000000000000000815250815f0181905250600381908060018154018082558091505060019003905f5260205f2090600202015f909190919091505f820151815f019081610ba89190611c1c565b506020820151816001015550507f0a97a4ee45751e2abf3e4fc8946939630b11b371ea8ae39ccdc3056e98f5cc3f5f6001604051610be7929190611db3565b60405180910390a150565b610bfa6110c2565b60016004811115610c0e57610c0d6113ad565b5b60025f9054906101000a900460ff166004811115610c2f57610c2e6113ad565b5b14610c6f576040517f08c379a0000000000000000000000000000000000000000000000000000000008152600401610c6690611e8c565b60405180910390fd5b6002805f6101000a81548160ff02191690836004811115610c9357610c926113ad565b5b02179055507f0a97a4ee45751e2abf3e4fc8946939630b11b371ea8ae39ccdc3056e98f5cc3f60016002604051610ccb929190611db3565b60405180910390a1565b610cdd611221565b60045f3373ffffffffffffffffffffffffffffffffffffffff1673ffffffffffffffffffffffffffffffffffffffff1681526020019081526020015f205f015f9054906101000a900460ff16610d68576040517f08c379a0000000000000000000000000000000000000000000000000000000008152600401610d5f90611676565b60405180910390fd5b60045f8373ffffffffffffffffffffffffffffffffffffffff1673ffffffffffffffffffffffffffffffffffffffff1681526020019081526020015f206040518060600160405290815f82015f9054906101000a900460ff161515151581526020015f820160019054906101000a900460ff161515151581526020016001820154815250509050919050565b610dfc6110c2565b60026004811115610e1057610e0f6113ad565b5b60025f9054906101000a900460ff166004811115610e3157610e306113ad565b5b14610e71576040517f08c379a0000000000000000000000000000000000000000000000000000000008152600401610e6890611ef4565b60405180910390fd5b600360025f6101000a81548160ff02191690836004811115610e9657610e956113ad565b5b02179055507f0a97a4ee45751e2abf3e4fc8946939630b11b371ea8ae39ccdc3056e98f5cc3f60026003604051610ece929190611db3565b60405180910390a1565b610ee06110c2565b5f73ffffffffffffffffffffffffffffffffffffffff168173ffffffffffffffffffffffffffffffffffffffff1603610f4e576040517f08c379a0000000000000000000000000000000000000000000000000000000008152600401610f4590611f82565b60405180910390fd5b610f5781611140565b50565b610f626110c2565b5f6004811115610f7557610f746113ad565b5b60025f9054906101000a900460ff166004811115610f9657610f956113ad565b5b14610fd6576040517f08c379a0000000000000000000000000000000000000000000000000000000008152600401610fcd90611fea565b60405180910390fd5b5f60045f8373ffffffffffffffffffffffffffffffffffffffff1673ffffffffffffffffffffffffffffffffffffffff1681526020019081526020015f20905060011515815f015f9054906101000a900460ff1615150361106c576040517f08c379a000000000000000000000000000000000000000000000000000000000815260040161106390612052565b60405180910390fd5b6001815f015f6101000a81548160ff0219169083151502179055507fb6be2187d059cc2a55fe29e0e503b566e1e0f8c8780096e185429350acffd3dd826040516110b69190611394565b60405180910390a15050565b6110ca611201565b73ffffffffffffffffffffffffffffffffffffffff166110e8610800565b73ffffffffffffffffffffffffffffffffffffffff161461113e576040517f08c379a0000000000000000000000000000000000000000000000000000000008152600401611135906120ba565b60405180910390fd5b565b5f805f9054906101000a900473ffffffffffffffffffffffffffffffffffffffff169050815f806101000a81548173ffffffffffffffffffffffffffffffffffffffff021916908373ffffffffffffffffffffffffffffffffffffffff1602179055508173ffffffffffffffffffffffffffffffffffffffff168173ffffffffffffffffffffffffffffffffffffffff167f8be0079c531659141344cd1fd0a4f28419497f9722a3daafe3b4186f6b6457e060405160405180910390a35050565b5f33905090565b6040518060400160405280606081526020015f81525090565b60405180606001604052805f151581526020015f151581526020015f81525090565b5f80fd5b5f80fd5b5f819050919050565b61125d8161124b565b8114611267575f80fd5b50565b5f8135905061127881611254565b92915050565b5f6020828403121561129357611292611243565b5b5f6112a08482850161126a565b91505092915050565b5f80fd5b5f80fd5b5f80fd5b5f8083601f8401126112ca576112c96112a9565b5b8235905067ffffffffffffffff8111156112e7576112e66112ad565b5b602083019150836001820283011115611303576113026112b1565b5b9250929050565b5f80602083850312156113205761131f611243565b5b5f83013567ffffffffffffffff81111561133d5761133c611247565b5b611349858286016112b5565b92509250509250929050565b5f73ffffffffffffffffffffffffffffffffffffffff82169050919050565b5f61137e82611355565b9050919050565b61138e81611374565b82525050565b5f6020820190506113a75f830184611385565b92915050565b7f4e487b71000000000000000000000000000000000000000000000000000000005f52602160045260245ffd5b600581106113eb576113ea6113ad565b5b50565b5f8190506113fb826113da565b919050565b5f61140a826113ee565b9050919050565b61141a81611400565b82525050565b5f6020820190506114335f830184611411565b92915050565b5f81519050919050565b5f82825260208201905092915050565b5f5b83811015611470578082015181840152602081019050611455565b5f8484015250505050565b5f601f19601f8301169050919050565b5f61149582611439565b61149f8185611443565b93506114af818560208601611453565b6114b88161147b565b840191505092915050565b6114cc8161124b565b82525050565b5f604083015f8301518482035f8601526114ec828261148b565b915050602083015161150160208601826114c3565b508091505092915050565b5f6020820190508181035f83015261152481846114d2565b905092915050565b6115358161124b565b82525050565b5f60208201905061154e5f83018461152c565b92915050565b61155d81611374565b8114611567575f80fd5b50565b5f8135905061157881611554565b92915050565b5f6020828403121561159357611592611243565b5b5f6115a08482850161156a565b91505092915050565b5f8115159050919050565b6115bd816115a9565b82525050565b606082015f8201516115d75f8501826115b4565b5060208201516115ea60208501826115b4565b5060408201516115fd60408501826114c3565b50505050565b5f6060820190506116165f8301846115c3565b92915050565b5f82825260208201905092915050565b7f596f75277265206e6f74206120766f74657200000000000000000000000000005f82015250565b5f61166060128361161c565b915061166b8261162c565b602082019050919050565b5f6020820190508181035f83015261168d81611654565b9050919050565b7f566f74696e672073657373696f6e206e6f74206f70656e0000000000000000005f82015250565b5f6116c860178361161c565b91506116d382611694565b602082019050919050565b5f6020820190508181035f8301526116f5816116bc565b9050919050565b7f596f75206861766520616c726561647920766f746564000000000000000000005f82015250565b5f61173060168361161c565b915061173b826116fc565b602082019050919050565b5f6020820190508181035f83015261175d81611724565b9050919050565b7f50726f706f73616c206e6f7420666f756e6400000000000000000000000000005f82015250565b5f61179860128361161c565b91506117a382611764565b602082019050919050565b5f6020820190508181035f8301526117c58161178c565b9050919050565b7f4e487b71000000000000000000000000000000000000000000000000000000005f52603260045260245ffd5b5f60408201905061180c5f830185611385565b611819602083018461152c565b9392505050565b7f50726f706f73616c7320617265206e6f7420616c6c6f776564207965740000005f82015250565b5f611854601d8361161c565b915061185f82611820565b602082019050919050565b5f6020820190508181035f83015261188181611848565b9050919050565b50565b5f6118965f8361161c565b91506118a182611888565b5f82019050919050565b5f6020820190508181035f8301526118c28161188b565b9050919050565b828183375f83830152505050565b5f6118e2838561161c565b93506118ef8385846118c9565b6118f88361147b565b840190509392505050565b5f6020820190508181035f83015261191c8184866118d7565b90509392505050565b7f50726f706f73616c2063616e207420626520656d7074790000000000000000005f82015250565b5f61195960178361161c565b915061196482611925565b602082019050919050565b5f6020820190508181035f8301526119868161194d565b9050919050565b7f4465736372697074696f6e20746f6f206c6f6e670000000000000000000000005f82015250565b5f6119c160148361161c565b91506119cc8261198d565b602082019050919050565b5f6020820190508181035f8301526119ee816119b5565b9050919050565b7f4e487b71000000000000000000000000000000000000000000000000000000005f52604160045260245ffd5b7f4e487b71000000000000000000000000000000000000000000000000000000005f52602260045260245ffd5b5f6002820490506001821680611a6657607f821691505b602082108103611a7957611a78611a22565b5b50919050565b5f819050815f5260205f209050919050565b5f6020601f8301049050919050565b5f82821b905092915050565b5f60088302611adb7fffffffffffffffffffffffffffffffffffffffffffffffffffffffffffffffff82611aa0565b611ae58683611aa0565b95508019841693508086168417925050509392505050565b5f819050919050565b5f611b20611b1b611b168461124b565b611afd565b61124b565b9050919050565b5f819050919050565b611b3983611b06565b611b4d611b4582611b27565b848454611aac565b825550505050565b5f90565b611b61611b55565b611b6c818484611b30565b505050565b5b81811015611b8f57611b845f82611b59565b600181019050611b72565b5050565b601f821115611bd457611ba581611a7f565b611bae84611a91565b81016020851015611bbd578190505b611bd1611bc985611a91565b830182611b71565b50505b505050565b5f82821c905092915050565b5f611bf45f1984600802611bd9565b1980831691505092915050565b5f611c0c8383611be5565b9150826002028217905092915050565b611c2582611439565b67ffffffffffffffff811115611c3e57611c3d6119f5565b5b611c488254611a4f565b611c53828285611b93565b5f60209050601f831160018114611c84575f8415611c72578287015190505b611c7c8582611c01565b865550611ce3565b601f198416611c9286611a7f565b5f5b82811015611cb957848901518255600182019150602085019450602081019050611c94565b86831015611cd65784890151611cd2601f891682611be5565b8355505b6001600288020188555050505b505050505050565b7f4e487b71000000000000000000000000000000000000000000000000000000005f52601160045260245ffd5b5f611d228261124b565b9150611d2d8361124b565b9250828203905081811115611d4557611d44611ceb565b5b92915050565b7f566f74696e672073657373696f6e20686173206e6f74207374617274656400005f82015250565b5f611d7f601e8361161c565b9150611d8a82611d4b565b602082019050919050565b5f6020820190508181035f830152611dac81611d73565b9050919050565b5f604082019050611dc65f830185611411565b611dd36020830184611411565b9392505050565b7f566f74657220726567697374726174696f6e206e6f74206f70656e00000000005f82015250565b5f611e0e601b8361161c565b9150611e1982611dda565b602082019050919050565b5f6020820190508181035f830152611e3b81611e02565b9050919050565b7f50726f706f73616c20726567697374726174696f6e206e6f74206f70656e00005f82015250565b5f611e76601e8361161c565b9150611e8182611e42565b602082019050919050565b5f6020820190508181035f830152611ea381611e6a565b9050919050565b7f50726f706f73616c20726567697374726174696f6e206e6f7420636c6f7365645f82015250565b5f611ede60208361161c565b9150611ee982611eaa565b602082019050919050565b5f6020820190508181035f830152611f0b81611ed2565b9050919050565b7f4f776e61626c653a206e6577206f776e657220697320746865207a65726f20615f8201527f6464726573730000000000000000000000000000000000000000000000000000602082015250565b5f611f6c60268361161c565b9150611f7782611f12565b604082019050919050565b5f6020820190508181035f830152611f9981611f60565b9050919050565b7f566f7465727320726567697374726174696f6e206973206e6f74206f70656e005f82015250565b5f611fd4601f8361161c565b9150611fdf82611fa0565b602082019050919050565b5f6020820190508181035f83015261200181611fc8565b9050919050565b7f416c7265616479207265676973746572656400000000000000000000000000005f82015250565b5f61203c60128361161c565b915061204782612008565b602082019050919050565b5f6020820190508181035f83015261206981612030565b9050919050565b7f4f776e61626c653a2063616c6c6572206973206e6f7420746865206f776e65725f82015250565b5f6120a460208361161c565b91506120af82612070565b602082019050919050565b5f6020820190508181035f8301526120d181612098565b905091905056fea2646970667358221220a3b0eec71a74dab69fb6d21f9050f6daa3094170f77439e3011d0133f587df6c64736f6c63430008140033",
  "immutableReferences": {},
  "source": "// SPDX-License-Identifier: MIT\n\npragma solidity 0.8.20;\n\n/*\n * ABOUT THIS EXERCICE :\n * - constraints : not adding any new function, not changing the workflow\n *\n * - The original contract has a secutity breach, it is vulnerable to \n * gas limit DoS attack.This attack consist in adding a very large number of proposals\n * to have an array so big that a loop would not be abble to run it completely.\n * Its iterations would make it reach the gas limit.\n * There's 3 options to correct this breach : max number of proposal limit, pagination, evaluate the winner at each vote\n * -- having a pagination is not secure as the admin could forget to call the function,\n *  it's not a trustless solution and this makes the workflow less clear (even if he already has to manage the workflow)\n * -- having a max number of proposal is not an ethical solution because even if the limit is great\n *  it limits the potential participants\n * -- the last option is retained (evaluate the winner at each vote)\n *  it implies an extra cost (about 2500 gas) for each vote but it's counterbalanced by\n *  the suppression of the loop, a function and an event\n *  As indicated in the course we are free to do what we want with 'tallyVote'.\n *  So we remove it and the corresponding event as it saves gas.\n *  We modify the last status event name to reflect that votes are tallied at this step\n *\n * - the descritpion size of a proposal is limited to 42000 bytes as\n * between 42200 and 42900 bytes we reach the gas limit for getOneProposal()\n * without this limit, we could vote for a proposal without being able to consult its description\n *\n * - many optimizations had been made to reduce gas cost. Comparaison had been made on remix\n *  (not accessing directly storage data, decreasing the size of revert message bigger than 32 bytes, ...)\n */\n\n/**\n@title Voting contract\n@author ibourn and mavy77\n@notice This contract allows to register voters, register proposals, vote and tally votes\n@dev The contract is Ownable\n@dev Since we can't change anything in the code apart from the optimization and the flaw, \nthe equality case will be treated as follows: the first proposal having reached this number of votes is chosen as the winner.\n@inheritdoc Ownable\n */\n import \"@openzeppelin/contracts/access/Ownable.sol\";\n\ncontract Voting is Ownable {\n\n    ///@notice the id of the propsals array that has the most votes\n    uint public winningProposalID;\n    \n    /**\n    @notice Voter struct\n    @param isRegistered, true if the voter is registered\n    @param hasVoted, true if the voter has voted\n    @param votedProposalId, the id of the proposal the voter voted for\n    */\n    struct Voter {\n        bool isRegistered;\n        bool hasVoted;\n        uint votedProposalId;\n    }\n\n    /**\n    @notice Proposal struct\n    @param description, Proposal description, a non empty string\n    @param voteCount, Proposal vote count\n    */\n    struct Proposal {\n        string description;\n        uint voteCount;\n    }\n\n    /**\n    @notice Workflow steps represented by an enum\n    @dev Removing tallyVotes() to correct the breach, we remove the last status 'VotesTallied'\n    and so we renamed VotingSessionEnded in VotingEndedAndTallied\n     */\n    enum  WorkflowStatus {\n        RegisteringVoters,\n        ProposalsRegistrationStarted,\n        ProposalsRegistrationEnded,\n        VotingSessionStarted,\n        VotingEndedAndTallied\n    }\n\n    ///@notice the current status of the vote represented by the WorkflowStatus enum\n    WorkflowStatus public workflowStatus;\n    ///@notice array of proposals whose id corresponds to the chronological order of addition\n    Proposal[] proposalsArray;\n    ///@notice map of Voter struct corresponding to the voter addresses\n    mapping (address => Voter) voters;\n\n    event VoterRegistered(address voterAddress); \n    event WorkflowStatusChange(WorkflowStatus previousStatus, WorkflowStatus newStatus);\n    event ProposalRegistered(uint proposalId);\n    event Voted (address voter, uint proposalId);\n    \n    modifier onlyVoters() {\n        require(voters[msg.sender].isRegistered, \"You're not a voter\");\n        _;\n    }\n    \n    // :::::::::::::::::::::::::: GETTERS :::::::::::::::::::::::::::::: //\n\n    /**\n    @notice get the Voter struct corresponding to the address\n    @param _addr, the address of the voter\n    @return Voter struct\n     */\n    function getVoter(address _addr) external onlyVoters view returns (Voter memory) {\n        return voters[_addr];\n    }\n    \n    /**\n    @notice get the Proposal struct corresponding to the id\n    @param _id, the id of the proposal\n    @return Proposal struct\n     */\n    function getOneProposal(uint _id) external onlyVoters view returns (Proposal memory) {\n        return proposalsArray[_id];\n    }\n \n    // ::::::::::::::::::::::: REGISTRATION ::::::::::::::::::::::::::: //\n\n    /*\n     * @todo : increase test as function is modified\n     * @comment : 163 gas saved (execution cost)\n     */\n    /**\n    @notice register a voter\n    @dev the function can only be called by the owner\n    @dev the function can only be called when the workflow status is RegisteringVoters\n    @dev the voter must not be already registered\n    @dev the voter is registered by setting the isRegistered boolean to true\n    @dev emit a VoterRegistered event\n    @param _addr, the address of the voter\n     */\n    function addVoter(address _addr) external onlyOwner {\n        require(workflowStatus == WorkflowStatus.RegisteringVoters, 'Voters registration is not open');\n        Voter storage currentVoter = voters[_addr];\n        require(currentVoter.isRegistered != true, 'Already registered');\n    \n        currentVoter.isRegistered = true;\n        emit VoterRegistered(_addr);\n    }\n\n    // ::::::::::::::::::::::::: PROPOSAL ::::::::::::::::::::::::::::: //\n    \n    /**\n    @notice register a proposal\n    @dev the function can only be called by a registered voter\n    @dev the function can only be called when the workflow status is ProposalsRegistrationStarted\n    @dev the proposal description must not be empty\n    @dev the proposal description must not be too long (< 42000 bytes)\n    @dev the proposal is registered by adding it to the proposalsArray, so it's chronological id is the last index of the array\n    @dev emit a ProposalRegistered event\n    @param _desc, the description of the proposal\n     */\n    function addProposal(string calldata _desc) external onlyVoters {\n        require(workflowStatus == WorkflowStatus.ProposalsRegistrationStarted, 'Proposals are not allowed yet');\n        require(keccak256(abi.encode(_desc)) != keccak256(abi.encode(\"\")), 'Proposal can t be empty'); // facultatif\n        require(bytes(_desc).length < 42000, \"Description too long\");\n\n        Proposal memory proposal;\n        proposal.description = _desc;\n        proposalsArray.push(proposal);\n        emit ProposalRegistered(proposalsArray.length-1);\n    }\n\n    // ::::::::::::::::::::::::::: VOTE ::::::::::::::::::::::::::::::: //\n\n    /**\n    @notice register a vote\n    @dev the function can only be called by a registered voter\n    @dev the function can only be called when the workflow status is VotingSessionStarted\n    @dev the voter must not have already voted\n    @dev the proposal id must correspond to a registered proposal\n    @dev the voter is registered by setting the hasVoted boolean to true\n    @dev the voter is registered by setting the votedProposalId to the proposal id\n    @dev the vote count of the proposal is incremented\n    @dev if the proposal vote count is greater than the current winning proposal vote count, the winning proposal id is set to the proposal id  \n    @dev emit a Voted event\n    @param _id, the id of the proposal\n     */\n    function setVote( uint _id) external onlyVoters {\n        require(workflowStatus == WorkflowStatus.VotingSessionStarted, 'Voting session not open');\n        Voter storage currentVoter = voters[msg.sender];\n        require(voters[msg.sender].hasVoted != true, 'You have already voted');\n        Proposal[] storage proposals = proposalsArray;\n        require(_id < proposals.length, 'Proposal not found'); // pas oblig, et pas besoin du >0 car uint\n\n        currentVoter.votedProposalId = _id;\n        currentVoter.hasVoted = true;\n\n        bool isWinningId;\n        unchecked { isWinningId = ++proposals[_id].voteCount > proposals[winningProposalID].voteCount; }\n        if (isWinningId) {\n            winningProposalID = _id;\n        }\n\n        emit Voted(msg.sender, _id);\n    }\n\n    // :::::::::::::::::::::::::: STATUS :::::::::::::::::::::::::::::: //\n\n    /**\n    @notice change the workflow status to ProposalsRegistrationStarted\n    @dev the function can only be called by the owner\n    @dev the function can only be called when the workflow status is RegisteringVoters\n     */\n    function startProposalsRegistering() external onlyOwner {\n        require(workflowStatus == WorkflowStatus.RegisteringVoters, 'Voter registration not open');\n        workflowStatus = WorkflowStatus.ProposalsRegistrationStarted;\n        \n        Proposal memory proposal;\n        proposal.description = \"GENESIS\";\n        proposalsArray.push(proposal);\n        \n        emit WorkflowStatusChange(WorkflowStatus.RegisteringVoters, WorkflowStatus.ProposalsRegistrationStarted);\n    }\n\n    /**\n    @notice change the workflow status to ProposalsRegistrationEnded\n    @dev the function can only be called by the owner\n    @dev the function can only be called when the workflow status is ProposalsRegistrationStarted\n     */\n    function endProposalsRegistering() external onlyOwner {\n        require(workflowStatus == WorkflowStatus.ProposalsRegistrationStarted, 'Proposal registration not open');\n        workflowStatus = WorkflowStatus.ProposalsRegistrationEnded;\n        emit WorkflowStatusChange(WorkflowStatus.ProposalsRegistrationStarted, WorkflowStatus.ProposalsRegistrationEnded);\n    }\n\n    /**\n    @notice change the workflow status to VotingSessionStarted\n    @dev the function can only be called by the owner\n    @dev the function can only be called when the workflow status is ProposalsRegistrationEnded\n     */\n    function startVotingSession() external onlyOwner {\n        require(workflowStatus == WorkflowStatus.ProposalsRegistrationEnded, 'Proposal registration not closed');\n        workflowStatus = WorkflowStatus.VotingSessionStarted;\n        emit WorkflowStatusChange(WorkflowStatus.ProposalsRegistrationEnded, WorkflowStatus.VotingSessionStarted);\n    }\n\n    /**\n    @notice change the workflow status to VotingEndedAndTallied\n    @dev the function can only be called by the owner\n    @dev the function can only be called when the workflow status is VotingSessionStarted\n     */\n    function endVotingSession() external onlyOwner {\n        require(workflowStatus == WorkflowStatus.VotingSessionStarted, 'Voting session has not started');\n        workflowStatus = WorkflowStatus.VotingEndedAndTallied;\n        emit WorkflowStatusChange(WorkflowStatus.VotingSessionStarted, WorkflowStatus.VotingEndedAndTallied);\n    }\n}",
  "sourcePath": "/home/ibournubuntu/ALYRA/PROJET3/VotingDapp/truffle/contracts/Voting.sol",
  "compiler": {
    "name": "solc",
    "version": "0.8.20+commit.a1b79de6.Emscripten.clang"
  },
  "schemaVersion": "3.4.14",
  "updatedAt": "2023-07-04T15:11:50.431Z",
  "networkType": "ethereum",
  "devdoc": {
    "kind": "dev",
    "methods": {
      "addProposal(string)": {
        "details": "the function can only be called by a registered voterthe function can only be called when the workflow status is ProposalsRegistrationStartedthe proposal description must not be emptythe proposal description must not be too long (< 42000 bytes)the proposal is registered by adding it to the proposalsArray, so it's chronological id is the last index of the arrayemit a ProposalRegistered event",
        "params": {
          "_desc": ", the description of the proposal"
        }
      },
      "addVoter(address)": {
        "details": "the function can only be called by the ownerthe function can only be called when the workflow status is RegisteringVotersthe voter must not be already registeredthe voter is registered by setting the isRegistered boolean to trueemit a VoterRegistered event",
        "params": {
          "_addr": ", the address of the voter"
        }
      },
      "endProposalsRegistering()": {
        "details": "the function can only be called by the ownerthe function can only be called when the workflow status is ProposalsRegistrationStarted"
      },
      "endVotingSession()": {
        "details": "the function can only be called by the ownerthe function can only be called when the workflow status is VotingSessionStarted"
      },
      "getOneProposal(uint256)": {
        "params": {
          "_id": ", the id of the proposal"
        },
        "returns": {
          "_0": "Proposal struct"
        }
      },
      "getVoter(address)": {
        "params": {
          "_addr": ", the address of the voter"
        },
        "returns": {
          "_0": "Voter struct"
        }
      },
      "owner()": {
        "details": "Returns the address of the current owner."
      },
      "renounceOwnership()": {
        "details": "Leaves the contract without owner. It will not be possible to call `onlyOwner` functions. Can only be called by the current owner. NOTE: Renouncing ownership will leave the contract without an owner, thereby disabling any functionality that is only available to the owner."
      },
      "setVote(uint256)": {
        "details": "the function can only be called by a registered voterthe function can only be called when the workflow status is VotingSessionStartedthe voter must not have already votedthe proposal id must correspond to a registered proposalthe voter is registered by setting the hasVoted boolean to truethe voter is registered by setting the votedProposalId to the proposal idthe vote count of the proposal is incrementedif the proposal vote count is greater than the current winning proposal vote count, the winning proposal id is set to the proposal id  emit a Voted event",
        "params": {
          "_id": ", the id of the proposal"
        }
      },
      "startProposalsRegistering()": {
        "details": "the function can only be called by the ownerthe function can only be called when the workflow status is RegisteringVoters"
      },
      "startVotingSession()": {
        "details": "the function can only be called by the ownerthe function can only be called when the workflow status is ProposalsRegistrationEnded"
      },
      "transferOwnership(address)": {
        "details": "Transfers ownership of the contract to a new account (`newOwner`). Can only be called by the current owner."
      }
    },
    "version": 1
  },
  "userdoc": {
    "kind": "user",
    "methods": {
      "addProposal(string)": {
        "notice": "register a proposal"
      },
      "addVoter(address)": {
        "notice": "register a voter"
      },
      "endProposalsRegistering()": {
        "notice": "change the workflow status to ProposalsRegistrationEnded"
      },
      "endVotingSession()": {
        "notice": "change the workflow status to VotingEndedAndTallied"
      },
      "getOneProposal(uint256)": {
        "notice": "get the Proposal struct corresponding to the id"
      },
      "getVoter(address)": {
        "notice": "get the Voter struct corresponding to the address"
      },
      "setVote(uint256)": {
        "notice": "register a vote"
      },
      "startProposalsRegistering()": {
        "notice": "change the workflow status to ProposalsRegistrationStarted"
      },
      "startVotingSession()": {
        "notice": "change the workflow status to VotingSessionStarted"
      },
      "winningProposalID()": {
        "notice": "the id of the propsals array that has the most votes"
      },
      "workflowStatus()": {
        "notice": "the current status of the vote represented by the WorkflowStatus enum"
      }
    },
    "version": 1
  }
}